:101F25000116000111000112000113010114010144
:051F3500150101100080
:100F8300121F8FC2A3D2AFE4FD7FFF121C92E513A1
:100F9300600302108FF50875F004E508A4240DF52D
:100FA30082E5F03417F583E493FE740193FF75F043
:100FB30004E508A4240FF582E5F03417F583E474FF
:100FC3000193FD121E9F0508E508C394FA40C87DEE
:100FD300207F007E30121E9F750980750A007426DB
:100FE300250AF58274803509F583E493FDAF0AAED3
:100FF30009121E9F050AE50A70020509C3945DE5FF
:1010030009948F40D9E4FD7F227E30121E9FE4FDB8
:101013007F237E30121E9FE4FD7F247E30121E9FAD
:10102300E4FD7F257E30121E9FE4FD7F267E301275
:101033001E9FE4FD7F277E30121E9FE4FD7F287EE6
:1010430030121E9F7DFF7F297E30121E9FE4FDFF1D
:101053007E30121E9F7DFF7F047E30121E9FE4FDB3
:10106300FFFE121E9FE4FDFFFE121E9FE4FDFFFE26
:10107300121E9FE4FDFFFE121E9F7DFFE4FFFE1282
:101083001E9F7D377F08121F0C751301E514703204
:10109300E512702E9000007428F0A37452F0A3742C
:1010A30067F0A3F0A37442F0A37465F0A37472F025
:1010B300A37429F074002512F582E43400F583E06B
:1010C300F599E51564026003020F91900011E0FFAA
:1010D30064437024A3E06448701EA3E0B44B19A3D7
:1010E300E0B44814A3E0B4570FE516B4060AE514B8
:1010F300B40105E4F512F514EF6444702590001271
:10110300E0644D701DA3E0B43118A3E0B44113A310
:10111300E0B4460EE516B406097D037F227E301245
:101123001E9F900011E064447029A3E0644D702376
:10113300A3E06431701DA3E0B45218A3E0B44613D6
:10114300A3E0B4750EE516B407097D087F227E304F
:10115300121E9F900011E064447027A3E0644D7059
:1011630021A3E06432701BA3E0B44E16A3E0B46580
:1011730011A3E0B4670CE516B407077D01E4FF1281
:101183001C92900011E064447027A3E0644D702129
:10119300A3E06432701BA3E0B44516A3E0B46D1161
:1011A300A3E0B4620CE516B407077D02E4FF121C4A
:1011B30092900011E064447027A3E0644D7021A372
:1011C300E06432701BA3E0B44716A3E0B47911A323
:1011D300E0B4730CE516B407077D03E4FF121C9219
:1011E300900011E064447027A3E0644D7021A3E0F4
:1011F3006432701BA3E0B45716A3E0B46411A3E0F8
:10120300B4630CE516B407077D04E4FF121C929047
:101213000011E064447027A3E0644D7021A3E064EF
:1012230032701BA3E0B43416A3E0B46E11A3E0B490
:10123300310CE516B407077D05E4FF121C929000FC
:1012430011E064447026A3E0644D7020A3E064328F
:10125300701AA3E0B44E15A3E0B46D10A3E0B4611B
:101263000BE516B40706E4FDFF121C92900011E093
:1012730064446003021316A3E0644D600302131673
:10128300A3E064336003021316A3E0645660030211
:101293001316A3E06464707BA3E064317075E516F4
:1012A3006407706F7D01FF121C92E4FD7F01121C25
:1012B30092E4FD7F02121C927DF07F03121C92E4E4
:1012C300FD7F05121C92E4FD7F06121C927D027FB6
:1012D30007121C927D1C7F08121C927D027F0D1247
:1012E3001C927D1C7F0E121C927D017F09121C92A1
:1012F3007DE07F0A121C92E4FD7F0B121C92E4FD39
:101303007F0C121C92E4FD7F0F121C92E4FD7F10F0
:10131300121C92900011E0644460030213BDA3E029
:10132300644D60030213BDA3E0643360030213BD85
:10133300A3E0645660030213BDA3E06464707BA35F
:10134300E064327075E5166407706F7D01FF121C4F
:1013530092E4FD7F01121C92E4FD7F02121C927D38
:10136300F07F03121C92E4FD7F05121C92E4FD7FC3
:1013730006121C927D027F07121C927D1C7F0812AD
:101383001C927D027F0D121C927D1C7F0E121C92FB
:101393007D017F09121C927DE07F0A121C92E4FDFD
:1013A3007F0B121C92E4FD7F0C121C92E4FD7F0F55
:1013B300121C92E4FD7F10121C92900011E0644411
:1013C3006003021464A3E0644D6003021464A3E0A9
:1013D30064336003021464A3E0645660030214647C
:1013E300A3E06464707BA3E064337075E51664075F
:1013F300706F7D01FF121C92E4FD7F01121C92E4C9
:10140300FD7F02121C927DF07F03121C92E4FD7F8C
:1014130005121C92E4FD7F06121C92E4FD7F071265
:101423001C92E4FD7F08121C927D027F0D121C9218
:101433007D1C7F0E121C92E4FD7F09121C92E4FDB9
:101443007F0A121C927D017F0B121C927DE07F0CA0
:10145300121C92E4FD7F0F121C92E4FD7F10121CFC
:1014630092900011E06444600302150BA3E0644D05
:10147300600302150BA3E06433600302150BA3E0C2
:101483006456600302150BA3E06464707BA3E064FD
:10149300347075E5166407706F7D01FF121C92E4CA
:1014A300FD7F01121C92E4FD7F02121C92E4FD7F7A
:1014B30003121C92E4FD7F05121C92E4FD7F0612C9
:1014C3001C927D027F07121C927D1C7F08121C92C6
:1014D300E4FD7F0D121C92E4FD7F0E121C92E4FDCD
:1014E3007F09121C92E4FD7F0A121C92E4FD7F0B1C
:1014F300121C92E4FD7F0C121C927D017F0F121CC3
:10150300927DE07F10121C92900011E0644460030E
:101513000215B1A3E0644D60030215B1A3E0643387
:1015230060030215B1A3E0644160030215B1A3E0B7
:10153300644C707AA3E064567074E5166407706EA9
:10154300FDFF121C92E4FD7F01121C92E4FD7F0259
:10155300121C927DF07F03121C92E4FD7F05121C86
:1015630092E4FD7F06121C927D027F07121C927D7E
:101573001C7F08121C927D027F0D121C927D1C7F22
:101583000E121C927D017F09121C927DE07F0A12CC
:101593001C92E4FD7F0B121C927DF07F0C121C92B7
:1015A300E4FD7F0F121C927DF07F10121C929000BD
:1015B30011E06444705AA3E0644D7054A3E06434B2
:1015C300704EA3E064567048A3E064647042A3E0E5
:1015D3006431703CE51664077036FDFF121C92E41B
:1015E300FD7F01121C92E4FD7F05121C92E4FD7F36
:1015F30006121C927D017F09121C927DE07F0A1264
:101603001C92E4FD7F0B121C92E4FD7F0C121C92D2
:10161300900011E06444705AA3E0644D7054A3E059
:101623006434704EA3E064567048A3E0646470426F
:10163300A3E06432703CE51664077036FDFF121CAC
:1016430092E4FD7F02121C92E4FD7F07121C92E4D8
:10165300FD7F08121C927D017F0B121C927DE07F9F
:101663000C121C92E4FD7F09121C92E4FD7F0A1206
:101673001C92900011E064447070A3E0644D706AA2
:10168300A3E064347064A3E06432705EA3E0645644
:101693007058A3E064647052E5166407704C7D01D2
:1016A300FF121C92E4FD7F01121C927DF07F021257
:1016B3001C92E4FD7F07121C92E4FD7F08121C922A
:1016C300E4FD7F05121C92E4FD7F06121C92E4FDEB
:1016D3007F0B121C927DF07F0C121C92E4FD7F099C
:1016E300121C927DF07F0A121C92E4F508741025F7
:1016F30008F582E43400F583E4F00508E508B41046
:0A170300ECE4F516751501020F91D4
:03002300021AF5C9
:101AF500C0E0C083C082C0D030984AC29885991092
:101B0500E5167010E515B4010BE510B43C0675112A
:101B150000751500E516C39410502AE51570267456
:101B2500102511F582E43400F583E510F0741025D5
:101B350011F582E43400F583E0B43E0575150280A5
:101B45000405160511309930C29974002512F582E5
:101B5500E43400F583E0B4290BE514701BF5127528
:101B650014018014E5147010051274002512F58215
:101B7500E43400F583E0F599D0D0D082D083D0E06D
:011B8500322D
:03001300021D7457
:101D7400C0E0C0F0C083C082C0D075D000C000C035
:101D840001C002C003C004C005C006C007E4FD7F53
:101D9400FF121C92D007D006D005D004D003D00285
:0F1DA400D001D000D0D0D082D083D0F0D0E032A8
:0300030002001DDB
:04001D007513003225
:10002600020DF3020A5FC201222200020F313001E3
:10003600030203093002030203099051A5E078BBCD
:10004600F6A3E008F6A3E008F6E51F7045751E2046
:10005600D234120C0C789C120BD278A8A61408A6DF
:100066001578B3A609187601784CA60A08A60B7867
:100076006CA61408A61578B3E6788CF6751F017879
:10008600BBE678B8F678BCE678B9F678BDE678BA15
:10009600F62279B8E7D378BB964005E796FF800845
:1000A600C379BBE778B896FF78A6760008A60779E5
:1000B600B9E7D378BC964005E796FF8008C379BCBC
:1000C600E778B996FF120C1379BAE7D378BD964054
:1000D60005E796FF8008C379BDE778BA96FF120C4C
:1000E6001378B2E625E0244CF8A60A08A60B78B2E7
:1000F600E625E0246CF8A61408A61578B2E6248C4A
:10010600F8A60978B2E62401FFE433FED3EF940F94
:10011600EE6480948040047F00800578B2E604FF98
:1001260078B2A607E51FB4010AE660030203097563
:100136001F0222120C0C789E120BD2120C0C78A005
:10014600120BFF78AA120BFFFF78ACA60608A607CB
:10015600788CE678B4F6788CE678B5F67F01EF25EC
:10016600E0244D789F120BC9500A120BAB789EA65D
:100176000408A605EF25E0246D78AB120BC9500FD5
:10018600EF25E0246C120BB078AAA60408A6057425
:100196008C2FF978B4E6C3975008748C2FF8E6785C
:1001A600B4F6EF25E0244DF9D378A1120BCB400A23
:1001B600120BAB78A0A60408A605EF25E0246DF97E
:1001C600D378AD120BCB400FEF25E0246C120BB0A9
:1001D60078ACA60408A605748C2FF978B5E6D397F3
:1001E6004008748C2FF8E678B5F60FEF64106003BC
:1001F60002013EC3799F78A1120BF778A2F608A6F2
:1002060007C379AB78AD120BF778AEF608A607C32D
:1002160079B4E778B59608F6D3799FE7789D96196D
:10022600E71896400509E7088006C3799DE7789F99
:10023600120BF8FE78A4A60608A607D379ABE778D2
:10024600A99619E71896400509E7088006C379A913
:10025600E778AB120BF8FE78B0A60608A60779B4C5
:10026600E7D378B3964005E796FF8008C379B3E7EE
:1002760078B496FF78B7A607E51F6402600302020A
:10028600EF903024740FF0900E8AE493FF18E6C3C3
:100296009F4003020309903024740EF078A2120BDB
:1002A600D9120BA2900E87120BB7789E120BE87B21
:1002B60004120B90C312070E506F900E8BE493FF3F
:1002C60078B7E69F4007903024740A8016900E890E
:1002D600E493FFD378A7E69F18E694004009903090
:1002E60024740BF0751F0578AE120BD9120BA29071
:1002F6000E88120BB778A8120BE87B40120B90D32E
:1003060012070E4024903024740CF0751F052290BD
:1003160030247401F0E51FB4050FD201C202E4F5E2
:100326001FF51ED234D232D23522E51F60030203F6
:1003360093F51ED2347534FF75350E7536557537FF
:1003460001120D85E4FFEF25E0244CF8E4F608F6EB
:100356000FBF34F2900E8CE493FFE549C39F50041F
:100366007F0580027FFB78BBA607120EBC40047F88
:100376000380027F3078BAA607E618F608E678B753
:10038600F678BAE678B8F678BD7633E408F678B645
:10039600760175480278B4F608F674FF78BFF60859
:1003A600F6751F0178BAE675F005A4F549120AFD3F
:1003B600C2362278B6E6D3940040021622E51FB470
:1003C6000523E4F51FC20178B4E6FE08E6FF784C83
:1003D600A60608A607A236E433F53C903028F07549
:1003E6001E10D23422E54975F0058478BAF6900ECF
:1003F60085E493FF25E0240AF8E6FC08E6FD78BAD2
:10040600E625E0244CF8A60408A605EF120EC3D391
:1004160078B596EE1896400D78BAE678B7F678B4C1
:10042600A60608A607900E85E493120EC3C378C0ED
:1004360096EE1896500D78BAE678B8F678BFA60606
:1004460008A60778B4E6FE08E6C378C096FFEE185D
:100456009678C1F608A607900E8EE418120EA140F3
:1004660002D23678BAE6082608F6E51F6401704A15
:10047600E6C378BE120E974005120E924039120E50
:10048600BA40047FFE80027F0278BBA60778B7E6F3
:10049600240378BDF678B7E624FD78BEF6120EBAC8
:1004A600400678BEE6FF800478BDE6FF78BCA60766
:1004B600751F0278B67601020559E51F64026003CE
:1004C60002053978BCE6FFC378BE120E98400812C2
:1004D6000E925003020537120EBA40047FFF8002C7
:1004E6007F0178BBA60778B7E60478BDF678B7E64D
:1004F6001478BEF618120EBC4004E6FF80027F0098
:1005060078BDA607D308E6648094804004E6FF80A1
:10051600027F0078BEA607C318E6648094B3500431
:10052600E6FF80027F3378BDA607C308E6648094A1
:10053600B35004E6FF80027F3378BEA607120EBAD8
:10054600400678BEE6FF800478BDE6FF78BCA607C5
:10055600751F0378B676018020E51F640370267840
:10056600BCE6FFC378BE120E984005120E924009F3
:1005760078B7E678BCF6751F0478BCE675F005A476
:10058600F549020AFDE51FB4041F900E8DE478C1FB
:10059600120EA14002D236751F057534FF75350E51
:1005A600753659753701120D8522EF8DF0A4A8F026
:1005B600CF8CF0A428CE8DF0A42EFE22BC000BBE5C
:1005C6000029EF8DF084FFADF022E4CCF875F00839
:1005D600EF2FFFEE33FEEC33FCEE9DEC984005FC6E
:1005E600EE9DFE0FD5F0E9E4CEFD22EDF8F5F0EE36
:1005F6008420D21CFEADF075F008EF2FFFED33FD21
:100606004007985006D5F0F222C398FD0FD5F0EAC0
:1006160022E88FF0A4CC8BF0A42CFCE98EF0A42C5D
:10062600FC8AF0EDA42CFCEA8EF0A4CDA8F08BF0A9
:10063600A42DCC3825F0FDE98FF0A42CCD35F0FCA7
:10064600EB8EF0A4FEA9F0EB8FF0A4CFC5F02ECD73
:1006560039FEE43CFCEAA42DCE35F0FDE43CFC2258
:1006660075F008758200EF2FFFEE33FECD33CDCC4B
:1006760033CCC58233C5829BED9AEC99E5829840CE
:100686000CF582EE9BFEED9AFDEC99FC0FD5F0D6AB
:10069600E4CEFBE4CDFAE4CCF9A88222B800C1B9D5
:1006A6000059BA002DEC8BF084CFCECDFCE5F0CB13
:1006B600F97818EF2FFFEE33FEED33FDEC33FCEB4C
:1006C60033FB10D703994004EB99FB0FD8E5E4F907
:1006D600FA227818EF2FFFEE33FEED33FDEC33FCF4
:1006E600C933C910D7059BE99A4007EC9BFCE99AE8
:1006F600F90FD8E0E4C9FAE4CCFB2275F010EF2F2D
:10070600FFEE33FEED33FDCC33CCC833C810D7072C
:100716009BEC9AE899400AED9BFDEC9AFCE899F867
:100726000FD5F0DAE4CDFBE4CCFAE4C8F922EB9F6E
:10073600F5F0EA9E42F0E99D42F0E89C45F022E899
:10074600600FEFC333FFEE33FEED33FDEC33FCD821
:10075600F122E493FC740193FD740293FE740393F7
:10076600FF22E6FB08E6F908E6FA08E6CBF822ECF3
:10077600F608EDF608EEF608EFF622A42582F582D5
:10078600E5F03583F58322D083D082F8E4937012A6
:10079600740193700DA3A393F8740193F582888373
:1007A600E4737402936860EFA3A3A380DF90380418
:1007B6007850120C7F903800E0FEA3E0FDEDFFC3F9
:1007C600120C38903810120C2C9038067852120CF5
:1007D6007F903802E0FEA3E0FDEDFFC3120C3890D7
:1007E6003812120C2CA3E0B4310778507950120C51
:1007F60095903814E0B471157850E6FE08E6780254
:10080600CEC313CE13D8F97951F7EE19F7903815F0
:10081600E0B4310778527952120C95903815E0B44D
:1008260071157852E6FE08E67802CEC313CE13D8C9
:10083600F97953F7EE19F77950120C6709120C671C
:10084600AF45120C1D7D5012059C7858A60608A6C9
:1008560007AF43120C1D7D5012059C7854A606085E
:10086600A607AF467852120C1F7D3C12059C785A9B
:10087600A60608A607AF447E007852120C217D3CDE
:1008860012059C7856A60608A607C37859E694086A
:1008960018E6940050057600087608C3785BE6945F
:1008A6000818E69400500576000876087858120C69
:1008B60054FFD37855E69F18E69E400E7858E61307
:1008C600FE08E67855120C8A80047E007F00785C6C
:1008D600120C4CFFD37857E69F18E69E400E785AC6
:1008E600E613FE08E67857120C8A80047E007F0025
:1008F600E4FCFD786012074F7858120C54785526A0
:10090600FFEE1836FE7864120C4C785726FFEE1868
:1009160036FEE4FCFD786812074F120C5C78641210
:100926000742D312070E4008120C5C786412074F78
:100936007852120C5E7868120742D312070E400AEC
:100946007852120C5E786812074FE4FD785F120C3D
:10095600772401120C407863120C772402120C40A3
:100966007867120C772403120C40786B120C7724EC
:1009760004120C400DBD05D4C20EC20622850841E4
:10098600903024E0F53DA3E0F53EA3E0F53FA3E07B
:10099600F540A3E0F53CD233E54112076709B403FD
:1009A60009B80409BE0509C10609C40709CD080925
:1009B600DE1209E08009E5810A438F0A32900A4374
:1009C600910A43920A43930A43940A43980A409F22
:1009D60000000A5E120ECE22120ECED20322D203DF
:1009E60022C20322A236E433F53C020A43C201C204
:1009F60002C203120D14751E70D234020A43804DD2
:100A0600120F17805E853D43853E44E545C313FFBF
:100A1600E543C39F50028F43E546C313FFE544C336
:100A26009F50028F44E545C313FFFDE543900E7FBB
:100A3600120EEA4004EE9FF543E546C313FFFDE5BB
:100A460044900E80120EEA4004EE9FF54412078D84
:100A56008011854046853F45853E44853D4380035C
:100A660002078D903024E53DF0A3E53EF0A3E53F77
:100A7600F0A3E540F0A3E53CF0903023E4F022C07B
:100A8600E0C083C082C0D0903F0CE0F532E5323042
:100A9600E34C30353E906019E0F50AA3E0F50B9083
:100AA600601DE0F514A3E0F515300106303203D3DE
:100AB6008001C39209300206303203D38001C3920B
:100AC6000A30320C300309200206200103D38001CC
:100AD600C3920B903001E04440F0E054BFF0E532A1
:100AE60030E114303311903022E0F508E4F03000A4
:100AF60003D38001C39208E53230E5129056A1E097
:100B0600F509303009300503D38001C3920D903FBB
:100B16000CE532F0D0D0D082D083D0E032900E7D7A
:100B2600E493FE740193FFC3900E7B7401939FFFC1
:100B3600E4939EFEE48F3B8E3AF539F538AB3BAA3B
:100B46003AA939A838AF49FCFDFE1205F1120EFC90
:100B5600E47BFFFAF9F812067C120EFC900E69E4AB
:100B6600120F11120EFCE4854837F536F535F534CB
:100B7600AF37AE36AD35AC34A3120F118F378E3684
:100B86008D358C34E53B4537F53BE53A4536F53A48
:100B9600E5394535F539E5384534F538E4F522F5D6
:100BA60023853B31853A3085392F85382E020DC590
:100BB600AD39AC38FAF9F81205F18F3B8E3A8D391A
:100BC6008C38AB37AA36A935A83422EF25E0244C59
:100BD600F8E6FC08E6FD2293FFE4FCFDFE1205F1B3
:100BE6008F378E368D358C3422F9C3E69718E61981
:100BF6009722FFA60608A60722E6FE08E6FFE48F70
:100C0600378E36F535F53422E6FE08E6FFE48F3BEF
:100C16008E3AF539F53822E796FF19E7189622FF3E
:100C2600A60608A607786CE6FE08E622784CE6FEDD
:100C360008E62278A7EF26F618E436F62278507EE4
:100C460000E6FC08E6FD12058A7C0022E0A3E075BA
:100C5600F002A4FFAEF0C308E69FF618E69EF62261
:100C6600FFE5F034608F82F583ECF022E4FCFD12A0
:100C7600074F785AE6C313FE08E613227850E6FEBD
:100C860008E6FFE4FCFD22E7C4F854F0C868F7095B
:100C9600E7C4540F48F722E6FCED75F004A422E001
:100CA600FEA3E0FDEEF6ED08F62213FFC3E69FFF76
:100CB60018E69EFE22E6C313F708E61309F7227527
:100CC600890375A80175B8047534FF75350E753638
:100CD6001575370D120D85120009120F1712000631
:100CE600D200D233D2AF7534FF75350E75364975DD
:100CF6003703120D85300809C23312095DC208D2C6
:100D060033300B09C23512000EC20BD23530090939
:100D1600C23512030AC209D235300E0312078D30CE
:100D260034D3903029E51EF0B41005903023E4F05A
:100D3600C23480C1E4F549900E7793FFE48F37F50E
:100D460036F535F534AF37AE36AD35AC34900E6A80
:100D5600120F118F378E368D358C34900E72120726
:100D660032EF4537F537EE4536F536ED4535F5358F
:100D7600EC4534F534E4F522F523853731853630F4
:100D860085352F85342E120DC5E4F522F523900EF8
:100D960072120F05120DC5E4F522F523900E6E12A0
:100DA6000F05020DC5AE35AF36E4FDEDC3953750E0
:100DB60033120F52E493F538740193F539453860D0
:100DC60023853982853883E0FC120F5274039352CF
:100DD60004120F527402934204853982853883ECDB
:100DE600F00D80C722A2AF9231C2AFE52345229013
:100DF6000E5D600B120F47E0F52CE0F52D800F120B
:100E06000F47E530F0900E5F120F47E531F0A23143
:100E160092AF22787FE4F6D8FD7581CB020C9F0055
:100E260011052516330250726F666974202014006E
:100E3600100056401A30297E00300420DF3005406D
:100E4600BF500300FD502701FE600011003F053032
:100E5600003F0622003F012A003F02000036060737
:100E6600003F0B0FF000000000300140BF300100D2
:100E7600BF302970003A0000FF3A0000FF36033603
:100E8600024144582018100A04040003FF640000BD
:100E96008000000000000002040600039800CC5009
:100EA6003C281E0C0C0000100C10040C6E060500ED
:100EB600A55A78BCE6D308FFE66480F8EF6480980C
:100EC6002293FF7E00E6FC08E6FD12058A78BFE65F
:100ED600FC08E6FDD3EF9DEE9C2278BBD3E664804A
:100EE60094802225E0240AF8E6FE08E6FF22D201D5
:100EF600C202E4F51FF51ED234D232D235D201C277
:100F060002F51FF51ED234D232222DFDE433FCE465
:100F160093FEFBD3ED9B7480F86C98228F3B8E3A40
:100F26008D398C38221207328F318E308D2F8C2ED0
:100F36002293F9F802071F900E811207328F468E10
:100F4600458D448C43D206300603D38001C3920EEE
:100F560022C0E0C083C082903F0DE0F533E533F058
:100F6600D082D083D0E032E493FE740193F5828E72
:0D0F760083228F828E8375F004ED02075BED
:0F1F8F00120016121FD9121EDA120006021EC00F
:101EDA0075F1F075F3EF75A50F75A60C75D40F752E
:091EEA00D61075E10175E24022F9
:0700160053D9BFE4F5D92224
:041FD90075B2872234
:101EC000759810758D96538EF4858D8B53890F43BD
:0A1ED0008920D28E43B810D2AC2254
:0B00060075880575E476D2A8D2AA2206
:101C120000FFFFFFFFFFFF001E6D01000101010138
:101C22000117010380A05A780AEE91A3544C992619
:101C32000F5054A1080031404540614071408180FD
:101C4200010101010101023A801871382D40582C1E
:101C5200450040846300001E662150B051001B30D5
:101C62004070360040846300001E000000FD003A10
:101C72003E1E5310000A202020202020000000FCDD
:101C8200004C472054560A2020202020202001E822
:101F6700D2A1121FCBD2A0121FCBC2A1121FCBC26C
:041F7700A0021FCBDA
:0F1F9E00C2A1121FCBD2A0121FCBD2A1021FCB08
:021CE2008F0D64
:101CE400E4F50EAF0EE50DA807088002C333D8FC57
:101CF40030E704D2A18002C2A1121FCBD2A0121FCE
:101D0400CBC2A0050EE50EC3940840D7121FCBD258
:101D1400A1121FCBD2A0121FCB30A104C20080029B
:071D2400D200C2A0021FCB98
:101DB300E4F51AD2A1F51B121FCBC2A0121FCBD27E
:101DC300A0121FCBE51A25E0F51A30A102051A125D
:101DD3001FCB051BE51BC3940840DCC2A0121FCB1D
:021DE300AF1A35
:011DE50022DB
:101F3B00200204C2A18002D2A1121FCBD2A0121F79
:061F4B00CBC2A0021FCB77
:061FCB00E4FF0FBF32FC31
:011FD10022ED
:0E1FAD00E4FFFE0FBF00010EBEFFF8BFFFF500
:011FBB002203
:021E4B008F1CEA
:101E4D00E4F51D121F677FA0121CE2AF1C121CE2ED
:101E5D00121F677FA1121CE2121DB38F1DD2021239
:071E6D001F3B121F9EAF1D79
:011E7400224B
:101EF3008F1E8D1F121F677FA0121CE2AF1E121CC4
:091F0300E2AF1F121CE2021F9E56
:021E75008F21BB
:101E7700E4F522121F677F70121CE2AF21121CE2E9
:101E8700121F677F71121CE2121DB38F22D202123A
:071E97001F3B121F9EAF224A
:011E9E002221
:101F0C008F0B8D0C121F677F70121CE2AF0B121C13
:091F1C00E2AF0C121CE2021F9E50
:101F7B00D294121FD2D295121FD2C294121FD2C268
:041F8B0095021FD2CA
:0F1FBC00C294121FD2D295121FD2D294021FD2FA
:021D2B008F0E19
:101D2D00E4F50FAF0FE50EA807088002C333D8FC0A
:101D3D0030E704D2948002C294121FD2D295121FA2
:101D4D00D2C295050FE50FC3940840D7121FD2D20A
:101D5D0094121FD2D295121FD2309404C201800268
:071D6D00D201C295021FD252
:101DE600E4F523D294F524121FD2C295121FD2D243
:101DF60095121FD2E52325E0F52330940205231220
:101E06001FD20524E524C3940840DCC295121FD2D4
:021E1600AF23F8
:011E180022A7
:101F5100200304C2948002D294121FD2D295121F80
:061F6100D2C295021FD25E
:061FD200E4FF0FBF32FC2A
:011FD80022E6
:041E19008E178F1879
:101E1D00E4F519121F7B7F78121D2BE517FF121D9C
:101E2D002BAF18121D2B121F7B7F79121D2B121D2C
:0D1E3D00E68F19D203121F51121FBCAF19FE
:011E4A002275
:101E9F008E0B8F0C8D0D121F7B7F78121D2BE50B78
:101EAF00FF121D2BAF0C121D2BAF0D121D2B021F7E
:011EBF00BC66
:10170D00310300113008008230080042310300031C
:10171D00301700FF3034001A303700133108000144
:10172D00363000363631000E363200E236330012D6
:10173D00362100E0370400A03703005A3715007832
:10174D0037170001370B00603705001A3905000205
:10175D00390600103901000A373100123600000831
:10176D0036010033302D006036200052371B00202B
:10177D00471C00503A1300433A1800003A1900F87C
:10178D00363500133636000336340040362200015C
:10179D003C0100343C0400283C0500983C06000048
:1017AD003C0700083C0800003C09001C3C0A009C5A
:1017BD003C0B0040381000003811001038120000AA
:1017CD0037080064400100024005001A3000000097
:1017DD00300400FF300E0058302E00004300000092
:1017ED00501F0003440E0000500000A73A0F0030B8
:1017FD003A1000283A1B00303A1E00263A110060BC
:10180D003A1F001458000023580100145802000F0D
:10181D005803000F58040012580500265806000CF6
:10182D00580700085808000558090005580A00080F
:10183D00580B000D580C0008580D0003580E0000F1
:10184D00580F0000581000035811000958120007D6
:10185D0058130003581400005815000158160003C2
:10186D00581700085818000D58190008581A000587
:10187D00581B0006581C0008581D000E581E002944
:10188D00581F00175820001158210011582200151B
:10189D0058230028582400465825002658260008AD
:1018AD00582700265828006458290026582A002455
:1018BD00582B0022582C0024582D0024582E000699
:1018CD00582F002258300040583100425832002421
:1018DD00583300265834002458350022583600223B
:1018ED00583700265838004458390024583A0026F5
:1018FD00583B0028583C0042583D00CE518000FF17
:10190D00518100F251820000518300145184002551
:10191D00518500245186000951870009518800091D
:10192D0051890075518A0054518B00E0518C00B2E1
:10193D00518D0042518E003D518F00565190004601
:10194D00519100F85192000451930070519400F0A0
:10195D00519500F0519600035197000151980004E4
:10196D0051990012519A0004519B0000519C0006A0
:10197D00519D0082519E0038548000015481000811
:10198D0054820014548300285484005154850065FA
:10199D00548600715487007D5488008754890091C6
:1019AD00548A009A548B00AA548C00B8548D00CDE3
:1019BD00548E00DD548F00EA5490001D5381001E9B
:1019CD005382005B538300085384000A5385007EC5
:1019DD00538600885387007C5388006C5389001010
:1019ED00538A0001538B00985300000853010030B7
:1019FD005302001053030000530400085305003038
:101A0D00530600085307001653090008530A003007
:101A1D00530B0004530C0006502500003008000243
:101A2D0030350021303600693C070007382000466C
:101A3D00382100003814001138150011380000004D
:101A4D003801000038020000380300003804000798
:101A5D003805009F380600043807003F3808000796
:101A6D0038090080380A0004380B0038380C000B98
:101A7D00380D001C380E0007380F00B03813000465
:101A8D00361800003612002937090052370C0003B2
:101A9D003A0200023A0300E03A0800003A09006FEA
:101AAD003A0A00003A0B005C3A0E00063A0D0008A7
:101ABD003A1400023A1500E0400400023002001C06
:101ACD00300600C34713000344070004460B0037DC
:101ADD00460C0020483700163824000450010083BE
:081AED0035050000301800FF70
:101C9200C293C2900000000000E4FEEF30E704D2DD
:101CA200928002C292EF25E0FFD290000000000075
:101CB200C29000000000000EBE08E0E4FEED30E736
:101CC20004D2928002C292ED25E0FDD29000000083
:0F1CD2000000C29000000000000EBE08E0D29398
:011CE10022E0
:03000000021B865A
:0C1B8600787FE4F6D8FD758124021BCDA9
:101B9200020F83E493A3F8E493A34003F68001F2D7
:101BA20008DFF48029E493A3F85407240CC8C33354
:101BB200C4540F4420C8834004F456800146F6DF23
:101BC200E4800B0102040810204080901F25E47E6F
:101BD200019360BCA3FF543F30E509541FFEE49318
:101BE200A360010ECF54C025E060A840B8E493A3DF
:101BF200FAE493A3F8E493A3C8C582C8CAC583CA0A
:101C0200F0A3C8C582C8CAC583CADFE9DEE780BEC1
:011F3A0000A6
:00000001FF
